:0A098F000001020203030404050541
:10049B00E4F513F512F511F510C203C200C202C246
:1004AB00011203327E077F008E238F24752B077575
:1004BB002C1275210775221C752907752A4A752D73
:1004CB0007752E78EE54C0700302059A75140075EB
:1004DB0015808E168F17C3749A9FFF74079ECF24B7
:1004EB0002CF3400FEE48F0F8E0EF50DF50CF50BDD
:1004FB00F50AF509F508AF0FAE0EAD0DAC0CAB0B55
:10050B00AA0AA909A808C31209675031AE0AAF0B92
:10051B00E5172FF582E5163EF583E0FDE5152FF582
:10052B0082E5143EF583EDF0EF2401F50BE43EF587
:10053B000AE43509F509E43508F50880B985142373
:10054B0085152474002480FF740734FFFEC3E52C4B
:10055B009FF52CE52B9EF52BC3E5269FF526E52570
:10056B009EF525C3E5289FF528E5279EF527C3E5CE
:10057B00229FF522E5219EF521C3E52A9FF52AE569
:10058B00299EF529C3E52E9FF52EE52D9EF52DD23F
:10059B00E843D82090E668E04409F090E65CE0443C
:1005AB003DF0D2AF90E680E020E105D20412080FB7
:1005BB0090E680E054F7F0538EF8C2031209B7307F
:1005CB000105120080C2013003F21206FE50EDC28B
:1005DB00031208C220001690E682E030E704E02008
:1005EB00E1EF90E682E030E604E020E0E412086BF5
:0505FB001209AD80C7EC
:0B09840090E50DE030E402C322D32216
:1000800090E6B9E0700302016A14700302021324BF
:10009000FE70030202A924FB7003020164147003C2
:1000A00002015E147003020152147003020158240D
:1000B00005600302031E1209AF400302032A90E603
:1000C000BBE024FE603B14605624FD6016146040C3
:1000D00024067074E52390E6B3F0E52490E6B4F0CE
:1000E00002032A120984500FE52B90E6B3F0E52CA9
:1000F00090E6B4F002032A90E6A0E04401F0020387
:100100002AE52590E6B3F0E52690E6B4F002032A4E
:10011000E52790E6B3F0E52890E6B4F002032A90D4
:10012000E6BAE0FF120897AA06A9077B01EA496030
:100130000DEE90E6B3F0EF90E6B4F002032A90E6FD
:10014000A0E04401F002032A90E6A0E04401F0029E
:10015000032A12095502032A1209A102032A1209CD
:100160009902032A12094302032A1209B140030229
:10017000032A90E6B8E0247F602B14603C240260E0
:1001800003020209A200E433FF25E0FFA202E433E8
:100190004F90E740F0E4A3F090E68AF090E68B748D
:1001A00002F002032AE490E740F0A3F090E68AF020
:1001B00090E68B7402F002032A90E6BCE0547EFFC6
:1001C0007E00E0D3948040067C007D0180047C00AA
:1001D0007D00EC4EFEED4F248FF58274093EF583D1
:1001E000E493FF3395E0FEEF24A1FFEE34E68F8227
:1001F000F583E0540190E740F0E4A3F090E68AF044
:1002000090E68B7402F002032A90E6A0E04401F02D
:1002100002032A1209B3400302032A90E6B8E0243D
:10022000FE601D2402600302032A90E6BAE0B401D6
:1002300005C20002032A90E6A0E04401F002032A6E
:1002400090E6BAE0705990E6BCE0547EFF7E00E094
:10025000D3948040067C007D0180047C007D00EC0E
:100260004EFEED4F248FF58274093EF583E493FF33
:100270003395E0FEEF24A1FFEE34E68F82F583E0B4
:1002800054FEF090E6BCE05480FF131313541FFF9C
:10029000E0540F2F90E683F0E04420F002032A9010
:1002A000E6A0E04401F002032A1209B5507C90E672
:1002B000B8E024FE60202402705B90E6BAE0B4014E
:1002C00004D200806590E6BAE06402605D90E6A02A
:1002D000E04401F0805490E6BCE0547EFF7E00E0F4
:1002E000D3948040067C007D0180047C007D00EC7E
:1002F0004EFEED4F248FF58274093EF583E493FFA3
:100300003395E0FEEF24A1FFEE34E68F82F583E023
:100310004401F0801590E6A0E04401F0800C120842
:100320003E500790E6A0E04401F090E6A0E0448053
:01033000F0DC
:0103310022A9
:030033000209A916
:0409A90053D8EF32FE
:1003320090E600E054E74410F090E601E044E3F078
:1003420000000090E602746AF00000000000000065
:10035200000090E60374C8F090E6047480F0000098
:10036200000000000000007402F000000000000025
:100372000000007406F00000000000000000000011
:100382000000E4F000000000000000000000000097
:1003920000000090E6707480F00000000000000091
:1003A2000000E490E609F0000000000000000000F8
:1003B20090E61074A0F00000000000000000009021
:1003C200E611F0000000000000000000E490E613D7
:1003D200F000000000000000000090E615F00000B0
:1003E2000000000000000090E61474E2F00000003B
:1003F20000000000000090E61274A2F0000000006D
:100402000000000000E490E61AF090E618F0000008
:100412000000000000000090E61A7409F090E6184F
:100422007431F000000000000000000090E6347417
:10043200C1F000000000000000000090E63574FFEB
:10044200F000000000000000000090E63474C1F0EB
:1004520000000000000000000090E63574FFF0008C
:100462000000000000000000E490E698F0000000A8
:1004720000000000000090E699F00000000000007B
:1004820000000000000000000000000043AF010077
:090492000000000000000000223F
:0109B700221D
:0206FE00D32205
:0209AD00D32253
:0209AF00D32251
:0809990090E6BAE0F51BD32241
:1009430090E740E51BF0E490E68AF090E68B04F034
:02095300D322AD
:0809A10090E6BAE0F51AD3223A
:1009550090E740E51AF0E490E68AF090E68B04F023
:02096500D3229B
:0209B100D3224F
:0209B300D3224D
:0209B500D3224B
:10083E0090E6B9E0242F601204701E90E604E0FFEB
:10084E00430780000000EFF0801190E604E0FF53B4
:0C085E00077F000000EFF08002D322C3EF
:01086A00226B
:1008E700C0E0C083C082D2015391EF90E65D7401EE
:0808F700F0D082D083D0E03282
:10091700C0E0C083C0825391EF90E65D7404F0D0CD
:0609270082D083D0E03213
:10092D00C0E0C083C0825391EF90E65D7402F0D0B9
:06093D0082D083D0E032FD
:1007D900C0E0C083C082852925852A268526828591
:1007E9002583A37402F085212785222885288285FF
:1007F9002783A37407F05391EF90E65D7410F0D04E
:0608090082D083D0E03232
:1008FF00C0E0C083C082D2035391EF90E65D7408CD
:08090F00F0D082D083D0E03269
:10079C00C0E0C083C08290E680E030E72085212550
:1007AC00852226852682852583A37402F085292738
:1007BC00852A28852882852783A37407F05391EF17
:0D07CC0090E65D7420F0D082D083D0E03242
:0109B800320C
:0109B900320B
:0109BA00320A
:0109BB003209
:0109BC003208
:0109BD003207
:0109BE003206
:0109BF003205
:0109C0003204
:0109C1003203
:0109C2003202
:0109C3003201
:0109C4003200
:0109C50032FF
:0109C60032FE
:0109C70032FD
:0109C80032FC
:0109C90032FB
:0109CA0032FA
:0109CB0032F9
:0109CC0032F8
:0109CD0032F7
:0109CE0032F6
:0109CF0032F5
:0109D00032F4
:0109D10032F3
:0109D20032F2
:0109D30032F1
:0109D40032F0
:0109D50032EF
:0109D60032EE
:0109D70032ED
:0109D80032EC
:0109D90032EB
:0109DA0032EA
:0109DB0032E9
:100700001201000200000040B404041000000102C5
:1007100000010A06000200000040010009022E004C
:1007200001010080320904000004FF0000000705F9
:10073000020200020007050402000200070586020B
:100740000002000705880200020009022E000101D4
:100750000080320904000004FF00000007050202C7
:100760004000000705040240000007058602400023
:100770000007058802400000040309041003430039
:100780007900700072006500730073000E034C0066
:0C07900049002D005500530042000000FD
:10086B0090E682E030E004E020E60B90E682E03098
:10087B00E119E030E71590E680E04401F07F147E4B
:0C088B00001206B890E680E054FEF02257
:10080F0030040990E680E0440AF0800790E680E02B
:10081F004408F07FDC7E051206B890E65D74FFF0A9
:0F082F0090E65FF05391EF90E680E054F7F022EF
:02089700A907AF
:10089900AE2DAF2E8F828E83A3E064037017AD0156
:1008A90019ED7001228F828E83E07C002FFDEC3ED2
:0808B900FEAF0580DFE4FEFF45
:0108C1002214
:1008C20090E682E044C0F090E681F04387010000A8
:0408D2000000002200
:1006B8008E188F1990E600E054187012E51924017D
:1006C800FFE43518C313F518EF13F519801590E6F4
:1006D80000E05418FFBF100BE51925E0F519E518DF
:1006E80033F518E5191519AE18700215184E60057E
:0606F8001208D680EE227C
:1008D6007400F58690FDA57C05A3E582458370F935
:0108E60022EF
:03004300020600B2
:03005300020600A2
:100600000208E70002092D00020917000208FF0096
:100610000207D90002079C000209B8000209B900CC
:100620000209BA000209BB000209BC000209BD00B0
:100630000209BE000209BF000209C0000209C10090
:100640000209C2000209B9000209C3000209C4007C
:100650000209C5000209C6000209C7000209C80054
:100660000209C9000209B9000209B9000209B9006A
:100670000209CA000209CB000209CC000209CD0020
:100680000209CE000209CF000209D0000209D10000
:100690000209D2000209D3000209D4000209D500E0
:1006A0000209D6000209D7000209D8000209D900C0
:0806B0000209DA000209DB0077
:030000000209787A
:0C097800787FE4F6D8FD75812E02049B08
:10096700EB9FF5F0EA9E42F0E99D42F0E89C45F0E6
:01097700225D
:00000001FF
